{
  "_format": "hh-sol-artifact-1",
  "contractName": "FavAlbum",
  "sourceName": "contracts/FavAlbum.sol",
  "abi": [
    {
      "inputs": [],
      "stateMutability": "payable",
      "type": "constructor"
    },
    {
      "anonymous": false,
      "inputs": [
        {
          "indexed": true,
          "internalType": "address",
          "name": "from",
          "type": "address"
        },
        {
          "indexed": false,
          "internalType": "uint256",
          "name": "timestamp",
          "type": "uint256"
        },
        {
          "indexed": false,
          "internalType": "string",
          "name": "url",
          "type": "string"
        }
      ],
      "name": "NewSubmission",
      "type": "event"
    },
    {
      "inputs": [],
      "name": "getAllSubmissions",
      "outputs": [
        {
          "components": [
            {
              "internalType": "address",
              "name": "user",
              "type": "address"
            },
            {
              "internalType": "string",
              "name": "url",
              "type": "string"
            },
            {
              "internalType": "uint256",
              "name": "timestamp",
              "type": "uint256"
            }
          ],
          "internalType": "struct FavAlbum.Submission[]",
          "name": "",
          "type": "tuple[]"
        }
      ],
      "stateMutability": "view",
      "type": "function"
    },
    {
      "inputs": [],
      "name": "getTotalSubmissions",
      "outputs": [
        {
          "internalType": "uint256",
          "name": "",
          "type": "uint256"
        }
      ],
      "stateMutability": "view",
      "type": "function"
    },
    {
      "inputs": [
        {
          "internalType": "address",
          "name": "",
          "type": "address"
        }
      ],
      "name": "lastSubmittedAt",
      "outputs": [
        {
          "internalType": "uint256",
          "name": "",
          "type": "uint256"
        }
      ],
      "stateMutability": "view",
      "type": "function"
    },
    {
      "inputs": [
        {
          "internalType": "string",
          "name": "_url",
          "type": "string"
        }
      ],
      "name": "submitAlbum",
      "outputs": [],
      "stateMutability": "nonpayable",
      "type": "function"
    }
  ],
  "bytecode": "0x60806040526200004f6040518060400160405280601981526020017f57652068617665206265656e20636f6e737472756374656421000000000000008152506200007760201b6200067a1760201c565b606444426200005f9190620001c4565b6200006b919062000261565b60018190555062000308565b62000117816040516024016200008e919062000184565b6040516020818303038152906040527f41304fac000000000000000000000000000000000000000000000000000000007bffffffffffffffffffffffffffffffffffffffffffffffffffffffff19166020820180517bffffffffffffffffffffffffffffffffffffffffffffffffffffffff83818316178352505050506200011a60201b60201c565b50565b60008151905060006a636f6e736f6c652e6c6f679050602083016000808483855afa5050505050565b60006200015082620001a8565b6200015c8185620001b3565b93506200016e8185602086016200022b565b6200017981620002f7565b840191505092915050565b60006020820190508181036000830152620001a0818462000143565b905092915050565b600081519050919050565b600082825260208201905092915050565b6000620001d18262000221565b9150620001de8362000221565b9250827fffffffffffffffffffffffffffffffffffffffffffffffffffffffffffffffff0382111562000216576200021562000299565b5b828201905092915050565b6000819050919050565b60005b838110156200024b5780820151818401526020810190506200022e565b838111156200025b576000848401525b50505050565b60006200026e8262000221565b91506200027b8362000221565b9250826200028e576200028d620002c8565b5b828206905092915050565b7f4e487b7100000000000000000000000000000000000000000000000000000000600052601160045260246000fd5b7f4e487b7100000000000000000000000000000000000000000000000000000000600052601260045260246000fd5b6000601f19601f8301169050919050565b6111ae80620003186000396000f3fe608060405234801561001057600080fd5b506004361061004c5760003560e01c80630341067a1461005157806354554d461461008157806362bd983a1461009f578063f0a6c5d1146100bd575b600080fd5b61006b60048036038101906100669190610994565b6100d9565b6040516100789190610d2a565b60405180910390f35b6100896100f1565b6040516100969190610d2a565b60405180910390f35b6100a761013c565b6040516100b49190610c26565b60405180910390f35b6100d760048036038101906100d291906109bd565b61028d565b005b60036020528060005260406000206000915090505481565b60006101346040518060400160405280601d81526020017f5765206861766520256420746f74616c207375626d697373696f6e7321000000815250600054610713565b600054905090565b60606002805480602002602001604051908101604052809291908181526020016000905b8282101561028457838290600052602060002090600302016040518060600160405290816000820160009054906101000a900473ffffffffffffffffffffffffffffffffffffffff1673ffffffffffffffffffffffffffffffffffffffff1673ffffffffffffffffffffffffffffffffffffffff1681526020016001820180546101e990610f10565b80601f016020809104026020016040519081016040528092919081815260200182805461021590610f10565b80156102625780601f1061023757610100808354040283529160200191610262565b820191906000526020600020905b81548152906001019060200180831161024557829003601f168201915b5050505050815260200160028201548152505081526020019060010190610160565b50505050905090565b42610384600360003373ffffffffffffffffffffffffffffffffffffffff1673ffffffffffffffffffffffffffffffffffffffff168152602001908152602001600020546102db9190610e3c565b1061031b576040517f08c379a000000000000000000000000000000000000000000000000000000000815260040161031290610d0a565b60405180910390fd5b42600360003373ffffffffffffffffffffffffffffffffffffffff1673ffffffffffffffffffffffffffffffffffffffff1681526020019081526020016000208190555060016000808282546103719190610e3c565b9250508190555061039a60405180606001604052806026815260200161115360269139336107af565b600260405180606001604052803373ffffffffffffffffffffffffffffffffffffffff16815260200183815260200142815250908060018154018082558091505060019003906000526020600020906003020160009091909190915060008201518160000160006101000a81548173ffffffffffffffffffffffffffffffffffffffff021916908373ffffffffffffffffffffffffffffffffffffffff1602179055506020820151816001019080519060200190610459929190610874565b50604082015181600201555050606460015442446104779190610e3c565b6104819190610e3c565b61048b9190610f73565b6001819055506104d26040518060400160405280601681526020017f52616e646f6d20232067656e6572617465643a20256400000000000000000000815250600154610713565b600660015414806104e55750600a600154145b15610627576105296040518060400160405280600781526020017f257320776f6e2100000000000000000000000000000000000000000000000000815250336107af565b60006601c6bf52634000905047811115610578576040517f08c379a000000000000000000000000000000000000000000000000000000000815260040161056f90610cca565b60405180910390fd5b60003373ffffffffffffffffffffffffffffffffffffffff168260405161059e90610c11565b60006040518083038185875af1925050503d80600081146105db576040519150601f19603f3d011682016040523d82523d6000602084013e6105e0565b606091505b5050905080610624576040517f08c379a000000000000000000000000000000000000000000000000000000000815260040161061b90610cea565b60405180910390fd5b50505b3373ffffffffffffffffffffffffffffffffffffffff167fbba340c41193f5646663a9bb97fd4d270f8995e02e492a2b5c416ffacb17b498428360405161066f929190610d45565b60405180910390a250565b6107108160405160240161068e9190610c48565b6040516020818303038152906040527f41304fac000000000000000000000000000000000000000000000000000000007bffffffffffffffffffffffffffffffffffffffffffffffffffffffff19166020820180517bffffffffffffffffffffffffffffffffffffffffffffffffffffffff838183161783525050505061084b565b50565b6107ab8282604051602401610729929190610c9a565b6040516020818303038152906040527f9710a9d0000000000000000000000000000000000000000000000000000000007bffffffffffffffffffffffffffffffffffffffffffffffffffffffff19166020820180517bffffffffffffffffffffffffffffffffffffffffffffffffffffffff838183161783525050505061084b565b5050565b61084782826040516024016107c5929190610c6a565b6040516020818303038152906040527f319af333000000000000000000000000000000000000000000000000000000007bffffffffffffffffffffffffffffffffffffffffffffffffffffffff19166020820180517bffffffffffffffffffffffffffffffffffffffffffffffffffffffff838183161783525050505061084b565b5050565b60008151905060006a636f6e736f6c652e6c6f679050602083016000808483855afa5050505050565b82805461088090610f10565b90600052602060002090601f0160209004810192826108a257600085556108e9565b82601f106108bb57805160ff19168380011785556108e9565b828001600101855582156108e9579182015b828111156108e85782518255916020019190600101906108cd565b5b5090506108f691906108fa565b5090565b5b808211156109135760008160009055506001016108fb565b5090565b600061092a61092584610d9a565b610d75565b90508281526020810184848401111561094257600080fd5b61094d848285610ece565b509392505050565b6000813590506109648161113b565b92915050565b600082601f83011261097b57600080fd5b813561098b848260208601610917565b91505092915050565b6000602082840312156109a657600080fd5b60006109b484828501610955565b91505092915050565b6000602082840312156109cf57600080fd5b600082013567ffffffffffffffff8111156109e957600080fd5b6109f58482850161096a565b91505092915050565b6000610a0a8383610ba3565b905092915050565b610a1b81610e92565b82525050565b610a2a81610e92565b82525050565b6000610a3b82610ddb565b610a458185610dfe565b935083602082028501610a5785610dcb565b8060005b85811015610a935784840389528151610a7485826109fe565b9450610a7f83610df1565b925060208a01995050600181019050610a5b565b50829750879550505050505092915050565b6000610ab082610de6565b610aba8185610e1a565b9350610aca818560208601610edd565b610ad381611060565b840191505092915050565b6000610ae982610de6565b610af38185610e2b565b9350610b03818560208601610edd565b610b0c81611060565b840191505092915050565b6000610b24603483610e2b565b9150610b2f82611071565b604082019050919050565b6000610b47602d83610e2b565b9150610b52826110c0565b604082019050919050565b6000610b6a600083610e0f565b9150610b758261110f565b600082019050919050565b6000610b8d600f83610e2b565b9150610b9882611112565b602082019050919050565b6000606083016000830151610bbb6000860182610a12565b5060208301518482036020860152610bd38282610aa5565b9150506040830151610be86040860182610bf3565b508091505092915050565b610bfc81610ec4565b82525050565b610c0b81610ec4565b82525050565b6000610c1c82610b5d565b9150819050919050565b60006020820190508181036000830152610c408184610a30565b905092915050565b60006020820190508181036000830152610c628184610ade565b905092915050565b60006040820190508181036000830152610c848185610ade565b9050610c936020830184610a21565b9392505050565b60006040820190508181036000830152610cb48185610ade565b9050610cc36020830184610c02565b9392505050565b60006020820190508181036000830152610ce381610b17565b9050919050565b60006020820190508181036000830152610d0381610b3a565b9050919050565b60006020820190508181036000830152610d2381610b80565b9050919050565b6000602082019050610d3f6000830184610c02565b92915050565b6000604082019050610d5a6000830185610c02565b8181036020830152610d6c8184610ade565b90509392505050565b6000610d7f610d90565b9050610d8b8282610f42565b919050565b6000604051905090565b600067ffffffffffffffff821115610db557610db4611031565b5b610dbe82611060565b9050602081019050919050565b6000819050602082019050919050565b600081519050919050565b600081519050919050565b6000602082019050919050565b600082825260208201905092915050565b600081905092915050565b600082825260208201905092915050565b600082825260208201905092915050565b6000610e4782610ec4565b9150610e5283610ec4565b9250827fffffffffffffffffffffffffffffffffffffffffffffffffffffffffffffffff03821115610e8757610e86610fa4565b5b828201905092915050565b6000610e9d82610ea4565b9050919050565b600073ffffffffffffffffffffffffffffffffffffffff82169050919050565b6000819050919050565b82818337600083830152505050565b60005b83811015610efb578082015181840152602081019050610ee0565b83811115610f0a576000848401525b50505050565b60006002820490506001821680610f2857607f821691505b60208210811415610f3c57610f3b611002565b5b50919050565b610f4b82611060565b810181811067ffffffffffffffff82111715610f6a57610f69611031565b5b80604052505050565b6000610f7e82610ec4565b9150610f8983610ec4565b925082610f9957610f98610fd3565b5b828206905092915050565b7f4e487b7100000000000000000000000000000000000000000000000000000000600052601160045260246000fd5b7f4e487b7100000000000000000000000000000000000000000000000000000000600052601260045260246000fd5b7f4e487b7100000000000000000000000000000000000000000000000000000000600052602260045260246000fd5b7f4e487b7100000000000000000000000000000000000000000000000000000000600052604160045260246000fd5b6000601f19601f8301169050919050565b7f547279696e6720746f207769746864726177206d6f7265206d6f6e657920746860008201527f616e2074686520636f6e7472616374206861732e000000000000000000000000602082015250565b7f4661696c656420746f207769746864726177206d6f6e65792066726f6d20736d60008201527f61727420636f6e74726163742e00000000000000000000000000000000000000602082015250565b50565b7f57616974203135206d696e757465730000000000000000000000000000000000600082015250565b61114481610e92565b811461114f57600080fd5b5056fe257320686173207375626d6974746564207468656972206661766f7269746520616c62756d21a2646970667358221220ba2a29adea5c81761295865ad9bcc80718b1982bc871f1b6227df94d063430ed64736f6c63430008040033",
  "linkReferences": {},
  "deployedLinkReferences": {}
}